{
    "contractName": "DateTimeContract",
    "abi": [
        {
            "inputs": [],
            "name": "getCurrentDateTime",
            "outputs": [
                {
                    "internalType": "string",
                    "name": "",
                    "type": "string"
                }
            ],
            "stateMutability": "view",
            "type": "function"
        }
    ],
    "bytecode": "608060405234801561001057600080fd5b50610620806100206000396000f3fe608060405234801561001057600080fd5b506004361061002b5760003560e01c8063db09bded14610030575b600080fd5b61003861004e565b604051610045919061040c565b60405180910390f35b60604260008080808080610061876100e9565b949a50929850909650945092509050600061007b8761022c565b61008e610089600489610455565b61022c565b61009c610089886013610468565b6100a58761022c565b6100ae8761022c565b6100b78761022c565b6040516020016100cc9695949392919061047b565b60408051601f198184030181529190529998505050505050505050565b60008080808080806100fd88617080610468565b9050600061010f6301e1853e8361054f565b61011b906107b2610468565b90506000600461012d6107b284610455565b610137919061054f565b905060006101478261016e610563565b610154620151808661054f565b61015e9190610455565b9050600061016d603c8661057a565b90506000603c61017f610e108861057a565b610189919061054f565b90506000610e1061019d620151808961057a565b6101a7919061054f565b9050600160005b600c82116101f45760006101c28984610338565b90508087116101d457869150506101f4565b6101de8188610455565b96505081806101ec9061058e565b9250506101ae565b87610200836001610468565b61020b836004610468565b8587899e509e509e509e509e509e5050505050505050505091939550919395565b6060816000036102535750506040805180820190915260018152600360fc1b602082015290565b8160005b811561027d57806102678161058e565b91506102769050600a8361054f565b9150610257565b60008167ffffffffffffffff811115610298576102986105a7565b6040519080825280601f01601f1916602001820160405280156102c2576020820181803683370190505b508593509050815b831561032f576102db600a8561057a565b6102e6906030610468565b60f81b826102f3836105bd565b92508281518110610306576103066105d4565b60200101906001600160f81b031916908160001a905350610328600a8561054f565b93506102ca565b50949350505050565b6000816002036103605761034b836103ad565b156103585750601d6103a7565b50601c6103a7565b6007821161038c5761037360028361057a565b1561037f57601f610382565b601e5b60ff1690506103a7565b61039760028361057a565b156103a357601e610382565b50601f5b92915050565b60006103ba60048361057a565b1580156103a757506103cd60648361057a565b1515806103a757506103e16101908361057a565b1592915050565b60005b838110156104035781810151838201526020016103eb565b50506000910152565b602081526000825180602084015261042b8160408501602087016103e8565b601f01601f19169190910160400192915050565b634e487b7160e01b600052601160045260246000fd5b818103818111156103a7576103a761043f565b808201808211156103a7576103a761043f565b60008751602061048e8285838d016103e8565b8184019150602d60f81b80835289516104ad8160018601858e016103e8565b600193019283015287516104c78160028501848c016103e8565b600160fd1b6002939091019283015286516104e88160038501848b016103e8565b808301925050601d60f91b806003840152865161050b8160048601858b016103e8565b6004930192830152845161052581600585018489016103e8565b919091016005019998505050505050505050565b634e487b7160e01b600052601260045260246000fd5b60008261055e5761055e610539565b500490565b80820281158282048414176103a7576103a761043f565b60008261058957610589610539565b500690565b6000600182016105a0576105a061043f565b5060010190565b634e487b7160e01b600052604160045260246000fd5b6000816105cc576105cc61043f565b506000190190565b634e487b7160e01b600052603260045260246000fdfea2646970667358221220715e7092a677753a6fe696242d1397709e71130235c0a7503a66aec4b5e0a3e264736f6c63430008130033",
    "sourcePath": "/Users/lonely/learn/web3/web3Project/blockchain/src/contract/DateTimeContract.sol",
    "compiler": {
        "name": "solc",
        "version": "0.8.19+commit.7dd6d404"
    },
    "functionHashes": {
        "getCurrentDateTime()": "db09bded"
    },
    "gasEstimates": {
        "creation": {
            "codeDepositCost": "313600",
            "executionCost": "349",
            "totalCost": "313949"
        },
        "external": {
            "getCurrentDateTime()": "infinite"
        },
        "internal": {
            "_getDaysInMonth(uint256,uint256)": "infinite",
            "_isLeapYear(uint256)": "infinite",
            "_timestampToDateTime(uint256)": "infinite",
            "uint2str(uint256)": "infinite"
        }
    }
}