{
    "contractName": "MultiSigWallet",
    "abi": [
        {
            "inputs": [
                {
                    "internalType": "address[]",
                    "name": "_owners",
                    "type": "address[]"
                },
                {
                    "internalType": "uint256",
                    "name": "_requiredSignatures",
                    "type": "uint256"
                },
                {
                    "internalType": "uint256",
                    "name": "counts",
                    "type": "uint256"
                },
                {
                    "internalType": "uint256",
                    "name": "L",
                    "type": "uint256"
                }
            ],
            "stateMutability": "nonpayable",
            "type": "constructor"
        },
        {
            "anonymous": false,
            "inputs": [
                {
                    "indexed": true,
                    "internalType": "address",
                    "name": "sender",
                    "type": "address"
                },
                {
                    "indexed": true,
                    "internalType": "uint256",
                    "name": "index",
                    "type": "uint256"
                },
                {
                    "indexed": true,
                    "internalType": "uint256",
                    "name": "value",
                    "type": "uint256"
                }
            ],
            "name": "ConfirmEarnmoney",
            "type": "event"
        },
        {
            "anonymous": false,
            "inputs": [
                {
                    "indexed": true,
                    "internalType": "address",
                    "name": "sender",
                    "type": "address"
                },
                {
                    "indexed": true,
                    "internalType": "uint256",
                    "name": "txId",
                    "type": "uint256"
                }
            ],
            "name": "ConfirmTransaction",
            "type": "event"
        },
        {
            "anonymous": false,
            "inputs": [
                {
                    "indexed": true,
                    "internalType": "address",
                    "name": "sender",
                    "type": "address"
                },
                {
                    "indexed": true,
                    "internalType": "uint256",
                    "name": "txId",
                    "type": "uint256"
                },
                {
                    "indexed": true,
                    "internalType": "address",
                    "name": "destination",
                    "type": "address"
                },
                {
                    "indexed": false,
                    "internalType": "uint256",
                    "name": "value",
                    "type": "uint256"
                },
                {
                    "indexed": false,
                    "internalType": "string",
                    "name": "data",
                    "type": "string"
                }
            ],
            "name": "ExecuteTransaction",
            "type": "event"
        },
        {
            "anonymous": false,
            "inputs": [
                {
                    "indexed": true,
                    "internalType": "address",
                    "name": "sender",
                    "type": "address"
                },
                {
                    "indexed": true,
                    "internalType": "uint256",
                    "name": "txId",
                    "type": "uint256"
                }
            ],
            "name": "RevokeConfirmation",
            "type": "event"
        },
        {
            "anonymous": false,
            "inputs": [
                {
                    "indexed": true,
                    "internalType": "address",
                    "name": "sender",
                    "type": "address"
                },
                {
                    "indexed": true,
                    "internalType": "uint256",
                    "name": "index",
                    "type": "uint256"
                },
                {
                    "indexed": true,
                    "internalType": "uint256",
                    "name": "value",
                    "type": "uint256"
                }
            ],
            "name": "RevokeEarnmoney",
            "type": "event"
        },
        {
            "anonymous": false,
            "inputs": [
                {
                    "indexed": true,
                    "internalType": "address",
                    "name": "sender",
                    "type": "address"
                },
                {
                    "indexed": true,
                    "internalType": "uint256",
                    "name": "txId",
                    "type": "uint256"
                },
                {
                    "indexed": true,
                    "internalType": "address",
                    "name": "destination",
                    "type": "address"
                },
                {
                    "indexed": false,
                    "internalType": "uint256",
                    "name": "value",
                    "type": "uint256"
                },
                {
                    "indexed": false,
                    "internalType": "string",
                    "name": "data",
                    "type": "string"
                }
            ],
            "name": "SubmitTransaction",
            "type": "event"
        },
        {
            "anonymous": false,
            "inputs": [
                {
                    "indexed": true,
                    "internalType": "address",
                    "name": "sender",
                    "type": "address"
                },
                {
                    "indexed": true,
                    "internalType": "uint256",
                    "name": "value",
                    "type": "uint256"
                }
            ],
            "name": "addbudget",
            "type": "event"
        },
        {
            "anonymous": false,
            "inputs": [
                {
                    "indexed": true,
                    "internalType": "address",
                    "name": "sender",
                    "type": "address"
                },
                {
                    "indexed": false,
                    "internalType": "uint256",
                    "name": "value",
                    "type": "uint256"
                },
                {
                    "indexed": false,
                    "internalType": "string",
                    "name": "data",
                    "type": "string"
                },
                {
                    "indexed": false,
                    "internalType": "uint256",
                    "name": "index",
                    "type": "uint256"
                }
            ],
            "name": "submitEarnmoney",
            "type": "event"
        },
        {
            "inputs": [
                {
                    "internalType": "uint256",
                    "name": "",
                    "type": "uint256"
                }
            ],
            "name": "EarnMoney",
            "outputs": [
                {
                    "internalType": "uint256",
                    "name": "value",
                    "type": "uint256"
                },
                {
                    "internalType": "string",
                    "name": "data",
                    "type": "string"
                },
                {
                    "internalType": "bool",
                    "name": "executed",
                    "type": "bool"
                },
                {
                    "internalType": "uint256",
                    "name": "numConfirmations",
                    "type": "uint256"
                },
                {
                    "internalType": "address",
                    "name": "sender",
                    "type": "address"
                },
                {
                    "internalType": "string",
                    "name": "submitearnMoneytime",
                    "type": "string"
                },
                {
                    "internalType": "string",
                    "name": "earnMoneytime",
                    "type": "string"
                },
                {
                    "internalType": "uint256",
                    "name": "revokeAlreadyEarnmoneycount",
                    "type": "uint256"
                },
                {
                    "internalType": "bytes32",
                    "name": "signature",
                    "type": "bytes32"
                }
            ],
            "stateMutability": "view",
            "type": "function"
        },
        {
            "inputs": [],
            "name": "budget",
            "outputs": [
                {
                    "internalType": "uint256",
                    "name": "",
                    "type": "uint256"
                }
            ],
            "stateMutability": "view",
            "type": "function"
        },
        {
            "inputs": [
                {
                    "internalType": "uint256",
                    "name": "index",
                    "type": "uint256"
                },
                {
                    "internalType": "string",
                    "name": "data",
                    "type": "string"
                }
            ],
            "name": "cancellationEarnmoney",
            "outputs": [],
            "stateMutability": "nonpayable",
            "type": "function"
        },
        {
            "inputs": [
                {
                    "internalType": "uint256",
                    "name": "_txId",
                    "type": "uint256"
                },
                {
                    "internalType": "string",
                    "name": "data",
                    "type": "string"
                }
            ],
            "name": "cancellationTransaction",
            "outputs": [],
            "stateMutability": "nonpayable",
            "type": "function"
        },
        {
            "inputs": [
                {
                    "internalType": "address",
                    "name": "newowner",
                    "type": "address"
                }
            ],
            "name": "chageContractowner",
            "outputs": [],
            "stateMutability": "nonpayable",
            "type": "function"
        },
        {
            "inputs": [
                {
                    "internalType": "uint256",
                    "name": "newlevel",
                    "type": "uint256"
                }
            ],
            "name": "changeViewRight",
            "outputs": [
                {
                    "internalType": "uint256",
                    "name": "NumberOfowner",
                    "type": "uint256"
                }
            ],
            "stateMutability": "nonpayable",
            "type": "function"
        },
        {
            "inputs": [
                {
                    "internalType": "uint256",
                    "name": "who",
                    "type": "uint256"
                },
                {
                    "internalType": "address",
                    "name": "change",
                    "type": "address"
                }
            ],
            "name": "changepowerfulman",
            "outputs": [],
            "stateMutability": "nonpayable",
            "type": "function"
        },
        {
            "inputs": [
                {
                    "internalType": "uint256",
                    "name": "newrequire",
                    "type": "uint256"
                }
            ],
            "name": "changerequiredSignatures",
            "outputs": [],
            "stateMutability": "nonpayable",
            "type": "function"
        },
        {
            "inputs": [
                {
                    "internalType": "uint256",
                    "name": "_txId",
                    "type": "uint256"
                }
            ],
            "name": "confirmTransaction",
            "outputs": [],
            "stateMutability": "nonpayable",
            "type": "function"
        },
        {
            "inputs": [
                {
                    "internalType": "uint256",
                    "name": "",
                    "type": "uint256"
                },
                {
                    "internalType": "address",
                    "name": "",
                    "type": "address"
                }
            ],
            "name": "confirmations",
            "outputs": [
                {
                    "internalType": "bool",
                    "name": "",
                    "type": "bool"
                }
            ],
            "stateMutability": "view",
            "type": "function"
        },
        {
            "inputs": [
                {
                    "internalType": "uint256",
                    "name": "",
                    "type": "uint256"
                },
                {
                    "internalType": "address",
                    "name": "",
                    "type": "address"
                }
            ],
            "name": "confirmationsearnmoney",
            "outputs": [
                {
                    "internalType": "bool",
                    "name": "",
                    "type": "bool"
                }
            ],
            "stateMutability": "view",
            "type": "function"
        },
        {
            "inputs": [
                {
                    "internalType": "uint256",
                    "name": "index",
                    "type": "uint256"
                }
            ],
            "name": "confirmearnMoney",
            "outputs": [],
            "stateMutability": "nonpayable",
            "type": "function"
        },
        {
            "inputs": [
                {
                    "internalType": "uint256",
                    "name": "index",
                    "type": "uint256"
                }
            ],
            "name": "earnMoney",
            "outputs": [],
            "stateMutability": "nonpayable",
            "type": "function"
        },
        {
            "inputs": [],
            "name": "earnmoneyCount",
            "outputs": [
                {
                    "internalType": "uint256",
                    "name": "",
                    "type": "uint256"
                }
            ],
            "stateMutability": "view",
            "type": "function"
        },
        {
            "inputs": [
                {
                    "internalType": "uint256",
                    "name": "_txId",
                    "type": "uint256"
                }
            ],
            "name": "executeTransaction",
            "outputs": [],
            "stateMutability": "nonpayable",
            "type": "function"
        },
        {
            "inputs": [],
            "name": "getOwners",
            "outputs": [
                {
                    "internalType": "address[]",
                    "name": "",
                    "type": "address[]"
                }
            ],
            "stateMutability": "view",
            "type": "function"
        },
        {
            "inputs": [
                {
                    "internalType": "uint256",
                    "name": "_txId",
                    "type": "uint256"
                }
            ],
            "name": "getTransaction",
            "outputs": [
                {
                    "internalType": "address",
                    "name": "destination",
                    "type": "address"
                },
                {
                    "internalType": "uint256",
                    "name": "value",
                    "type": "uint256"
                },
                {
                    "internalType": "string",
                    "name": "data",
                    "type": "string"
                },
                {
                    "internalType": "bool",
                    "name": "executed",
                    "type": "bool"
                },
                {
                    "internalType": "uint256",
                    "name": "numConfirmations",
                    "type": "uint256"
                },
                {
                    "internalType": "address",
                    "name": "send",
                    "type": "address"
                },
                {
                    "internalType": "string",
                    "name": "submitTransactiontime",
                    "type": "string"
                },
                {
                    "internalType": "string",
                    "name": "executeTransactiontime",
                    "type": "string"
                },
                {
                    "internalType": "bytes32",
                    "name": "signature",
                    "type": "bytes32"
                },
                {
                    "internalType": "uint256",
                    "name": "revokeAlreadyTransactioncount",
                    "type": "uint256"
                }
            ],
            "stateMutability": "view",
            "type": "function"
        },
        {
            "inputs": [
                {
                    "internalType": "uint256",
                    "name": "index",
                    "type": "uint256"
                }
            ],
            "name": "getearnmoney",
            "outputs": [
                {
                    "internalType": "uint256",
                    "name": "value",
                    "type": "uint256"
                },
                {
                    "internalType": "string",
                    "name": "data",
                    "type": "string"
                },
                {
                    "internalType": "bool",
                    "name": "execute",
                    "type": "bool"
                },
                {
                    "internalType": "uint256",
                    "name": "numConfirmations",
                    "type": "uint256"
                },
                {
                    "internalType": "address",
                    "name": "sender",
                    "type": "address"
                },
                {
                    "internalType": "string",
                    "name": "submitearnMoneytime",
                    "type": "string"
                },
                {
                    "internalType": "string",
                    "name": "earnMoneytime",
                    "type": "string"
                },
                {
                    "internalType": "bytes32",
                    "name": "signature",
                    "type": "bytes32"
                },
                {
                    "internalType": "uint256",
                    "name": "revokeAlreadyEarnmoneycount",
                    "type": "uint256"
                }
            ],
            "stateMutability": "view",
            "type": "function"
        },
        {
            "inputs": [
                {
                    "internalType": "uint256",
                    "name": "_txId",
                    "type": "uint256"
                },
                {
                    "internalType": "address",
                    "name": "_owner",
                    "type": "address"
                }
            ],
            "name": "isConfirmedtransation",
            "outputs": [
                {
                    "internalType": "bool",
                    "name": "",
                    "type": "bool"
                }
            ],
            "stateMutability": "view",
            "type": "function"
        },
        {
            "inputs": [
                {
                    "internalType": "uint256",
                    "name": "_txId",
                    "type": "uint256"
                },
                {
                    "internalType": "address",
                    "name": "_owner",
                    "type": "address"
                }
            ],
            "name": "isConfirmedtransationEarn",
            "outputs": [
                {
                    "internalType": "bool",
                    "name": "",
                    "type": "bool"
                }
            ],
            "stateMutability": "view",
            "type": "function"
        },
        {
            "inputs": [
                {
                    "internalType": "address",
                    "name": "",
                    "type": "address"
                }
            ],
            "name": "isOwner",
            "outputs": [
                {
                    "internalType": "bool",
                    "name": "",
                    "type": "bool"
                }
            ],
            "stateMutability": "view",
            "type": "function"
        },
        {
            "inputs": [],
            "name": "level",
            "outputs": [
                {
                    "internalType": "uint256",
                    "name": "",
                    "type": "uint256"
                }
            ],
            "stateMutability": "view",
            "type": "function"
        },
        {
            "inputs": [
                {
                    "internalType": "uint256",
                    "name": "",
                    "type": "uint256"
                }
            ],
            "name": "owners",
            "outputs": [
                {
                    "internalType": "address",
                    "name": "",
                    "type": "address"
                }
            ],
            "stateMutability": "view",
            "type": "function"
        },
        {
            "inputs": [
                {
                    "internalType": "uint256",
                    "name": "who",
                    "type": "uint256"
                }
            ],
            "name": "popowner",
            "outputs": [],
            "stateMutability": "nonpayable",
            "type": "function"
        },
        {
            "inputs": [
                {
                    "internalType": "address",
                    "name": "add",
                    "type": "address"
                }
            ],
            "name": "pushownere",
            "outputs": [],
            "stateMutability": "nonpayable",
            "type": "function"
        },
        {
            "inputs": [],
            "name": "requiredSignatures",
            "outputs": [
                {
                    "internalType": "uint256",
                    "name": "",
                    "type": "uint256"
                }
            ],
            "stateMutability": "view",
            "type": "function"
        },
        {
            "inputs": [
                {
                    "internalType": "uint256",
                    "name": "index",
                    "type": "uint256"
                }
            ],
            "name": "revokeAlreadyEarnmoney",
            "outputs": [],
            "stateMutability": "nonpayable",
            "type": "function"
        },
        {
            "inputs": [
                {
                    "internalType": "uint256",
                    "name": "_txId",
                    "type": "uint256"
                }
            ],
            "name": "revokeAlreadyTransaction",
            "outputs": [],
            "stateMutability": "nonpayable",
            "type": "function"
        },
        {
            "inputs": [
                {
                    "internalType": "uint256",
                    "name": "_txId",
                    "type": "uint256"
                }
            ],
            "name": "revokeConfirmation",
            "outputs": [],
            "stateMutability": "nonpayable",
            "type": "function"
        },
        {
            "inputs": [
                {
                    "internalType": "uint256",
                    "name": "",
                    "type": "uint256"
                },
                {
                    "internalType": "address",
                    "name": "",
                    "type": "address"
                }
            ],
            "name": "revokealreadyEarnmoney",
            "outputs": [
                {
                    "internalType": "bool",
                    "name": "",
                    "type": "bool"
                }
            ],
            "stateMutability": "view",
            "type": "function"
        },
        {
            "inputs": [
                {
                    "internalType": "uint256",
                    "name": "",
                    "type": "uint256"
                },
                {
                    "internalType": "address",
                    "name": "",
                    "type": "address"
                }
            ],
            "name": "revokealreadyTransaction",
            "outputs": [
                {
                    "internalType": "bool",
                    "name": "",
                    "type": "bool"
                }
            ],
            "stateMutability": "view",
            "type": "function"
        },
        {
            "inputs": [
                {
                    "internalType": "uint256",
                    "name": "index",
                    "type": "uint256"
                }
            ],
            "name": "revokeearnMoney",
            "outputs": [],
            "stateMutability": "nonpayable",
            "type": "function"
        },
        {
            "inputs": [
                {
                    "internalType": "address",
                    "name": "_destination",
                    "type": "address"
                },
                {
                    "internalType": "uint256",
                    "name": "_value",
                    "type": "uint256"
                },
                {
                    "internalType": "string",
                    "name": "_data",
                    "type": "string"
                }
            ],
            "name": "submitTransaction",
            "outputs": [],
            "stateMutability": "nonpayable",
            "type": "function"
        },
        {
            "inputs": [
                {
                    "internalType": "uint256",
                    "name": "count",
                    "type": "uint256"
                },
                {
                    "internalType": "string",
                    "name": "_data",
                    "type": "string"
                }
            ],
            "name": "submitearnMoney",
            "outputs": [],
            "stateMutability": "nonpayable",
            "type": "function"
        },
        {
            "inputs": [],
            "name": "time",
            "outputs": [
                {
                    "internalType": "contract DateTimeContract",
                    "name": "",
                    "type": "address"
                }
            ],
            "stateMutability": "view",
            "type": "function"
        },
        {
            "inputs": [],
            "name": "transactionCount",
            "outputs": [
                {
                    "internalType": "uint256",
                    "name": "",
                    "type": "uint256"
                }
            ],
            "stateMutability": "view",
            "type": "function"
        },
        {
            "inputs": [
                {
                    "internalType": "uint256",
                    "name": "",
                    "type": "uint256"
                }
            ],
            "name": "transactions",
            "outputs": [
                {
                    "internalType": "address",
                    "name": "destination",
                    "type": "address"
                },
                {
                    "internalType": "address",
                    "name": "sender",
                    "type": "address"
                },
                {
                    "internalType": "uint256",
                    "name": "value",
                    "type": "uint256"
                },
                {
                    "internalType": "string",
                    "name": "data",
                    "type": "string"
                },
                {
                    "internalType": "bool",
                    "name": "executed",
                    "type": "bool"
                },
                {
                    "internalType": "uint256",
                    "name": "numConfirmations",
                    "type": "uint256"
                },
                {
                    "internalType": "string",
                    "name": "submitTransactiontime",
                    "type": "string"
                },
                {
                    "internalType": "string",
                    "name": "executeTransactiontime",
                    "type": "string"
                },
                {
                    "internalType": "uint256",
                    "name": "revokeAlreadyTransactioncount",
                    "type": "uint256"
                },
                {
                    "internalType": "bytes32",
                    "name": "signature",
                    "type": "bytes32"
                }
            ],
            "stateMutability": "view",
            "type": "function"
        },
        {
            "inputs": [
                {
                    "internalType": "uint256",
                    "name": "",
                    "type": "uint256"
                }
            ],
            "name": "usedearnIndex",
            "outputs": [
                {
                    "internalType": "bool",
                    "name": "",
                    "type": "bool"
                }
            ],
            "stateMutability": "view",
            "type": "function"
        },
        {
            "inputs": [
                {
                    "internalType": "uint256",
                    "name": "",
                    "type": "uint256"
                }
            ],
            "name": "usedtransationsIndex",
            "outputs": [
                {
                    "internalType": "bool",
                    "name": "",
                    "type": "bool"
                }
            ],
            "stateMutability": "view",
            "type": "function"
        }
    ],
    "bytecode": "60806040523480156200001157600080fd5b50604051620042ff380380620042ff8339810160408190526200003491620002f7565b600682905583518310620000815760405162461bcd60e51b815260206004820152600f60248201526e13dddb995c9cc81c995c5d5a5c9959608a1b60448201526064015b60405180910390fd5b600083118015620000925750835183105b620000ee5760405162461bcd60e51b815260206004820152602560248201527f496e76616c6964206e756d626572206f66207265717569726564207369676e61604482015264747572657360d81b606482015260840162000078565b60005b8451811015620002a4576000858281518110620001125762000112620003e4565b6020026020010151905060006001600160a01b0316816001600160a01b031603620001805760405162461bcd60e51b815260206004820152601560248201527f496e76616c6964206f776e657220616464726573730000000000000000000000604482015260640162000078565b6001600160a01b03811660009081526002602052604090205460ff1615620001dd5760405162461bcd60e51b815260206004820152600f60248201526e223ab83634b1b0ba329037bbb732b960891b604482015260640162000078565b6001600160a01b038116600081815260026020526040808220805460ff19166001908117909155825490810183559180527f290decd9548b62a8d60345a988386fc84ba6bc95484008f6362f93160ef3e56390910180546001600160a01b031916909217909155516200025090620002b6565b604051809103906000f0801580156200026d573d6000803e3d6000fd5b50600880546001600160a01b0319166001600160a01b039290921691909117905550806200029b81620003fa565b915050620000f1565b50600192909255506009555062000422565b6106408062003cbf83390190565b634e487b7160e01b600052604160045260246000fd5b80516001600160a01b0381168114620002f257600080fd5b919050565b600080600080608085870312156200030e57600080fd5b84516001600160401b03808211156200032657600080fd5b818701915087601f8301126200033b57600080fd5b8151602082821115620003525762000352620002c4565b8160051b604051601f19603f830116810181811086821117156200037a576200037a620002c4565b60405292835281830193508481018201928b8411156200039957600080fd5b948201945b83861015620003c257620003b286620002da565b855294820194938201936200039e565b918a015160408b01516060909b0151929c909b50919850909650505050505050565b634e487b7160e01b600052603260045260246000fd5b6000600182016200041b57634e487b7160e01b600052601160045260246000fd5b5060010190565b61388d80620004326000396000f3fe608060405234801561001057600080fd5b506004361061023d5760003560e01c806384a5e9de1161013b578063c3b781c4116100b8578063ed01bf291161007c578063ed01bf29146105bc578063ee22610b146105c5578063f5b74e2b146105d8578063fde4b3c5146105eb578063fe15fd4c146105fe57600080fd5b8063c3b781c41461055d578063cf4a051c14610570578063d90aa24414610583578063dddfc82014610596578063e9262240146105a957600080fd5b80639ace38c2116100ff5780639ace38c2146104db5780639df8cde214610504578063a0e67e2b1461052c578063b77bf60014610541578063c01a8c841461054a57600080fd5b806384a5e9de1461044a5780638d068043146104785780638f10fc701461048157806390018dcc146104a457806394f3ba0e146104d257600080fd5b806333ea3dc8116101c957806357cda0c41161018d57806357cda0c4146103da5780636c29a744146103ed5780636fd5ae151461040057806374b223d51461040957806380086eef1461043757600080fd5b806333ea3dc81461034a5780633411c81c1461037357806335ff6b65146103a15780633de3fbfd146103b457806355aaa460146103c757600080fd5b80631a2db800116102105780631a2db800146102ad57806320ea8d86146102ce578063285bb07c146102e15780632f54bf6e1461031457806331d197fc1461033757600080fd5b8063025e7c271461024257806303d79d281461027257806308d4e0af1461028757806316ada5471461029a575b600080fd5b610255610250366004612ed8565b610611565b6040516001600160a01b0390911681526020015b60405180910390f35b610285610280366004612fd2565b61063b565b005b610285610295366004612ed8565b6109a4565b600854610255906001600160a01b031681565b6102c06102bb366004612ed8565b610ac8565b604051908152602001610269565b6102856102dc366004612ed8565b610b3b565b6103046102ef366004612ed8565b60046020526000908152604090205460ff1681565b6040519015158152602001610269565b610304610322366004613029565b60026020526000908152604090205460ff1681565b610285610345366004612ed8565b610c78565b61035d610358366004612ed8565b610eb2565b6040516102699a9998979695949392919061309b565b610304610381366004613123565b600b60209081526000928352604080842090915290825290205460ff1681565b6102856103af366004613123565b61115a565b6102856103c236600461314f565b611314565b6102856103d5366004612ed8565b61153a565b6102856103e8366004612ed8565b6116b7565b6102856103fb366004612ed8565b6117f2565b6102c060095481565b610304610417366004613123565b600e60209081526000928352604080842090915290825290205460ff1681565b610285610445366004612ed8565b61188e565b610304610458366004613123565b600d60209081526000928352604080842090915290825290205460ff1681565b6102c060015481565b61030461048f366004612ed8565b60036020526000908152604090205460ff1681565b6103046104b2366004613123565b600f60209081526000928352604080842090915290825290205460ff1681565b6102c060075481565b6104ee6104e9366004612ed8565b611ad8565b6040516102699a99989796959493929190613196565b610517610512366004612ed8565b611cd3565b604051610269999897969594939291906131ec565b610534611ec5565b6040516102699190613266565b6102c060055481565b610285610558366004612ed8565b611f27565b61051761056b366004612ed8565b61207b565b61028561057e36600461314f565b61235e565b610285610591366004613029565b6125d8565b6102856105a436600461314f565b612682565b6103046105b7366004613123565b6129a8565b6102c060065481565b6102856105d3366004612ed8565b6129e7565b6103046105e6366004613123565b612bf6565b6102856105f9366004613029565b612c33565b61028561060c366004612ed8565b612d58565b6000818154811061062157600080fd5b6000918252602090912001546001600160a01b0316905081565b6006548211156106895760405162461bcd60e51b81526020600482015260146024820152730c4eac8cecae840d2e640dcdee840cadcdeeaced60631b60448201526064015b60405180910390fd5b3360009081526002602052604090205460ff166106b85760405162461bcd60e51b8152600401610680906132b3565b6001600160a01b03831661070e5760405162461bcd60e51b815260206004820152601b60248201527f496e76616c69642064657374696e6174696f6e206164647265737300000000006044820152606401610680565b600081511161074f5760405162461bcd60e51b815260206004820152600d60248201526c11185d18481c995c5d5a5c9959609a1b6044820152606401610680565b600580546000818152600360205260408120805460ff19166001179055825491929061077a836132ef565b9190505550604051806101400160405280856001600160a01b03168152602001336001600160a01b0316815260200184815260200183815260200160001515815260200160008152602001600860009054906101000a90046001600160a01b03166001600160a01b031663db09bded6040518163ffffffff1660e01b8152600401600060405180830381865afa158015610818573d6000803e3d6000fd5b505050506040513d6000823e601f3d908101601f191682016040526108409190810190613308565b81526040805180820182526003808252621b9bdd60ea1b6020808401919091528085019290925260008385018190526060948501819052868152600a8352839020855181546001600160a01b03199081166001600160a01b039283161783559387015160018301805490951691161790925591840151600282015591830151908201906108cd9082613408565b50608082015160048201805460ff191691151591909117905560a0820151600582015560c082015160068201906109049082613408565b5060e082015160078201906109199082613408565b506101008201516008820155610120909101516009909101556000818152600b6020908152604080832033808552925291829020805460ff1916600117905590516001600160a01b0386169183917f557adc301c59c014874da9dd74ad580f3d8a99947a7df3947967947d8e89920e9061099690889088906134c8565b60405180910390a450505050565b806109ae816134e9565b60008181526004602052604090205490925060ff1690506109e15760405162461bcd60e51b815260040161068090613500565b3360009081526002602052604090205460ff16610a105760405162461bcd60e51b8152600401610680906132b3565b6000818152600c602052604090206002015460ff16610a415760405162461bcd60e51b815260040161068090613525565b6000818152600f6020908152604080832033845290915290205460ff1615610a7b5760405162461bcd60e51b81526004016106809061354f565b6000818152600f602090815260408083203384528252808320805460ff19166001908117909155848452600c9092528220600701805491929091610ac090849061357a565b909155505050565b600080600081548110610add57610add61358d565b6000918252602090912001546001600160a01b03163314610b325760405162461bcd60e51b815260206004820152600f60248201526e63616e206e6f7420646f207468697360881b6044820152606401610680565b60099190915590565b80610b45816134e9565b60008181526003602052604090205490925060ff169050610b785760405162461bcd60e51b8152600401610680906135a3565b3360009081526002602052604090205460ff16610ba75760405162461bcd60e51b8152600401610680906132b3565b6000818152600b6020908152604080832033845290915290205460ff16610c045760405162461bcd60e51b815260206004820152601160248201527012185cc81b9bdd0818dbdb999a5c9b5959607a1b6044820152606401610680565b6000818152600b602090815260408083203384528252808320805460ff19169055838352600a9091528120600501805460019290610c439084906135c7565b9091555050604051819033907ff0dca620e2e81f7841d07bcc105e1704fb01475b278a9d4c236e1c62945edd5590600090a350565b60008081548110610c8b57610c8b61358d565b6000918252602090912001546001600160a01b03163314610cbe5760405162461bcd60e51b8152600401610680906135da565b6000610ccb6001836135c7565b9050600060026000808481548110610ce557610ce561358d565b6000918252602080832091909101546001600160a01b031683528201929092526040019020805460ff191691151591909117905580610d5a5760405162461bcd60e51b815260206004820152601160248201527018d85b881b9bdd0819195b195d19481a5d607a1b6044820152606401610680565b6000548211801590610d6c5750600082115b610db85760405162461bcd60e51b815260206004820152601e60248201527f6e756d626572206f6620746865202777686f2720697320746f6f2062696700006044820152606401610680565b6000548203610df8576000805480610dd257610dd2613605565b600082815260209020810160001990810180546001600160a01b03191690550190555050565b600054821015610eae57805b600054610e13906001906135c7565b811015610e9c576000610e2782600161357a565b81548110610e3757610e3761358d565b600091825260208220015481546001600160a01b03909116919083908110610e6157610e6161358d565b600091825260209091200180546001600160a01b0319166001600160a01b039290921691909117905580610e94816132ef565b915050610e04565b506000805480610dd257610dd2613605565b5050565b6000806060818080838082808a610ec8816134e9565b600081815260036020526040902054909c5060ff169050610efb5760405162461bcd60e51b815260040161068090613500565b60008b8152600a602090815260408083206009810154338552600290935292205490935060ff1680610f2f57506009546001145b15610fdc57805460028201546003830180546001600160a01b039093169d50909b5090610f5b9061337f565b80601f0160208091040260200160405190810160405280929190818152602001828054610f879061337f565b8015610fd45780601f10610fa957610100808354040283529160200191610fd4565b820191906000526020600020905b815481529060010190602001808311610fb757829003601f168201915b505050505098505b3360009081526002602052604090205460ff1680610ffc57506003600954105b1561114c5760048101546005820154600183015460068401805460ff9094169b509199506001600160a01b03169750906110359061337f565b80601f01602080910402602001604051908101604052809291908181526020018280546110619061337f565b80156110ae5780601f10611083576101008083540402835291602001916110ae565b820191906000526020600020905b81548152906001019060200180831161109157829003601f168201915b505050505094508060070180546110c49061337f565b80601f01602080910402602001604051908101604052809291908181526020018280546110f09061337f565b801561113d5780601f106111125761010080835404028352916020019161113d565b820191906000526020600020905b81548152906001019060200180831161112057829003601f168201915b50505050509350806008015491505b509193959799509193959799565b6000808154811061116d5761116d61358d565b6000918252602090912001546001600160a01b031633146111c25760405162461bcd60e51b815260206004820152600f60248201526e63616e206e6f7420646f207468697360881b6044820152606401610680565b60005482118015906111d45750600182115b6111f05760405162461bcd60e51b815260040161068090613500565b816111fa816134e9565b6001600160a01b03831660009081526002602052604090205490935060ff1690506112675760405162461bcd60e51b815260206004820152601b60248201527f74686520706f77657266756c6d616e20686173206578697374656400000000006044820152606401610680565b60006002600080858154811061127f5761127f61358d565b60009182526020808320909101546001600160a01b0390811684528382019490945260409283018220805495151560ff1996871617905592851681526002909252812080549092166001179091558054829190849081106112e2576112e261358d565b9060005260206000200160006101000a8154816001600160a01b0302191690836001600160a01b031602179055505050565b8161131e816134e9565b3360009081526002602052604090205490935060ff1690506113525760405162461bcd60e51b8152600401610680906132b3565b6001546000838152600c602052604090206007015410156113855760405162461bcd60e51b81526004016106809061361b565b6000828152600c602052604090206002015460ff166113b65760405162461bcd60e51b815260040161068090613525565b60008281526004602052604090205460ff166113e45760405162461bcd60e51b815260040161068090613500565b6000828152600c602052604081205460068054919290916114069084906135c7565b90915550506000828152600c6020526040902060028101805460ff191690556001016114328282613408565b506040518060400160405280600681526020016518d85b98d95b60d21b815250600c600084815260200190815260200160002060050190816114749190613408565b506040518060400160405280600681526020016518d85b98d95b60d21b815250600c600084815260200190815260200160002060060190816114b69190613408565b506000828152600c6020908152604080832060038101849055805460028201546004830154935161150b969295600185019560ff909316946001600160a01b03909316926005810192600690910191016136c5565b60408051601f1981840301815291815281516020928301206000948552600c9092529092206008019190915550565b80611544816134e9565b60008181526004602052604090205490925060ff1690506115775760405162461bcd60e51b8152600401610680906135a3565b3360009081526002602052604090205460ff166115a65760405162461bcd60e51b8152600401610680906132b3565b6000818152600d6020908152604080832033845290915290205460ff166116035760405162461bcd60e51b815260206004820152601160248201527012185cc81b9bdd0818dbdb999a5c9b5959607a1b6044820152606401610680565b6000818152600c602052604090206002015460ff16156116355760405162461bcd60e51b815260040161068090613525565b6000818152600d602090815260408083203384528252808320805460ff19169055838352600c90915281206003018054600192906116749084906135c7565b90915550506000818152600c60205260408082205490519091839133917f795a1351958ba0fb47016c2c297a2b5ffecda8109030f51ef381e9d6f0ecc5d791a450565b806116c1816134e9565b60008181526003602052604090205490925060ff1690506116f45760405162461bcd60e51b815260040161068090613500565b3360009081526002602052604090205460ff166117235760405162461bcd60e51b8152600401610680906132b3565b6000818152600a602052604090206004015460ff166117735760405162461bcd60e51b815260206004820152600c60248201526b1b9bdd08195e1958dd5d195960a21b6044820152606401610680565b6000818152600e6020908152604080832033845290915290205460ff16156117ad5760405162461bcd60e51b81526004016106809061354f565b6000818152600e602090815260408083203384528252808320805460ff19166001908117909155848452600a9092528220600801805491929091610ac090849061357a565b600081118015611803575060005481105b6118435760405162461bcd60e51b81526020600482015260116024820152701ddc9bdb99c81c995c5d5a5c995b595b9d607a1b6044820152606401610680565b600080815481106118565761185661358d565b6000918252602090912001546001600160a01b031633146118895760405162461bcd60e51b8152600401610680906135da565b600155565b80611898816134e9565b60008181526004602052604090205490925060ff1690506118cb5760405162461bcd60e51b8152600401610680906135a3565b3360009081526002602052604090205460ff166118fa5760405162461bcd60e51b8152600401610680906132b3565b6001546000828152600c6020526040902060030154101561192d5760405162461bcd60e51b81526004016106809061361b565b6000818152600c602052604090206002015460ff161561195f5760405162461bcd60e51b815260040161068090613525565b6000818152600c6020526040808220600201805460ff19166001179055600854815163db09bded60e01b815291516001600160a01b039091169263db09bded92600480820193918290030181865afa1580156119bf573d6000803e3d6000fd5b505050506040513d6000823e601f3d908101601f191682016040526119e79190810190613308565b6000828152600c6020526040902060060190611a039082613408565b506000818152600c60205260408120546006805491929091611a2690849061357a565b90915550506000818152600c602090815260409182902080546002820154600383015460048401549551611a80969395600186019560ff9094169492936001600160a01b03909316926005810192600690910191016136c5565b60408051601f1981840301815282825280516020918201206000858152600c909252918120600881019290925590549133917f04fd36ec02c7f59d65bba4239c06a03c272770f8ebf6ba0a463a991ee6ec53e591a350565b600a6020526000908152604090208054600182015460028301546003840180546001600160a01b039485169594909316939192611b149061337f565b80601f0160208091040260200160405190810160405280929190818152602001828054611b409061337f565b8015611b8d5780601f10611b6257610100808354040283529160200191611b8d565b820191906000526020600020905b815481529060010190602001808311611b7057829003601f168201915b5050505060048301546005840154600685018054949560ff9093169491935090611bb69061337f565b80601f0160208091040260200160405190810160405280929190818152602001828054611be29061337f565b8015611c2f5780601f10611c0457610100808354040283529160200191611c2f565b820191906000526020600020905b815481529060010190602001808311611c1257829003601f168201915b505050505090806007018054611c449061337f565b80601f0160208091040260200160405190810160405280929190818152602001828054611c709061337f565b8015611cbd5780601f10611c9257610100808354040283529160200191611cbd565b820191906000526020600020905b815481529060010190602001808311611ca057829003601f168201915b505050505090806008015490806009015490508a565b600c6020526000908152604090208054600182018054919291611cf59061337f565b80601f0160208091040260200160405190810160405280929190818152602001828054611d219061337f565b8015611d6e5780601f10611d4357610100808354040283529160200191611d6e565b820191906000526020600020905b815481529060010190602001808311611d5157829003601f168201915b505050600284015460038501546004860154600587018054969760ff909416969295506001600160a01b03909116935090611da89061337f565b80601f0160208091040260200160405190810160405280929190818152602001828054611dd49061337f565b8015611e215780601f10611df657610100808354040283529160200191611e21565b820191906000526020600020905b815481529060010190602001808311611e0457829003601f168201915b505050505090806006018054611e369061337f565b80601f0160208091040260200160405190810160405280929190818152602001828054611e629061337f565b8015611eaf5780601f10611e8457610100808354040283529160200191611eaf565b820191906000526020600020905b815481529060010190602001808311611e9257829003601f168201915b5050505050908060070154908060080154905089565b60606000805480602002602001604051908101604052809291908181526020018280548015611f1d57602002820191906000526020600020905b81546001600160a01b03168152600190910190602001808311611eff575b5050505050905090565b80611f31816134e9565b60008181526003602052604090205490925060ff169050611f645760405162461bcd60e51b8152600401610680906135a3565b3360009081526002602052604090205460ff16611f935760405162461bcd60e51b8152600401610680906132b3565b6000818152600a60205260409020546001600160a01b0316611fc75760405162461bcd60e51b815260040161068090613721565b6000818152600b6020908152604080832033845290915290205460ff16156120015760405162461bcd60e51b81526004016106809061354f565b6000818152600b602090815260408083203384528252808320805460ff19166001908117909155848452600a909252822060050180549192909161204690849061357a565b9091555050604051819033907f5cbe105e36805f7820e291f799d5794ff948af2a5f664e580382defb6339004190600090a350565b600060608180808380828089612090816134e9565b600081815260046020526040902054909b5060ff1690506120c35760405162461bcd60e51b815260040161068090613500565b60008a8152600c602090815260408083206008015433845260029092529091205490925060ff16806120f757506003600954105b156122675760008a8152600c6020526040902060028101546005909101805460ff9092169850906121279061337f565b80601f01602080910402602001604051908101604052809291908181526020018280546121539061337f565b80156121a05780601f10612175576101008083540402835291602001916121a0565b820191906000526020600020905b81548152906001019060200180831161218357829003601f168201915b50505060008d8152600c602052604090206006018054939750926121c69250905061337f565b80601f01602080910402602001604051908101604052809291908181526020018280546121f29061337f565b801561223f5780601f106122145761010080835404028352916020019161223f565b820191906000526020600020905b81548152906001019060200180831161222257829003601f168201915b50505060008d8152600c60205260409020600381015460079091015490995092955091925050505b3360009081526002602052604090205460ff168061228757506009546001145b156123515760008a8152600c60205260409020805460019091018054919a50906122b09061337f565b80601f01602080910402602001604051908101604052809291908181526020018280546122dc9061337f565b80156123295780601f106122fe57610100808354040283529160200191612329565b820191906000526020600020905b81548152906001019060200180831161230c57829003601f168201915b50505060008d8152600c6020526040902060040154929a50506001600160a01b039091169550505b9193959799909294969850565b81612368816134e9565b60008181526003602052604090205490935060ff16905061239b5760405162461bcd60e51b815260040161068090613500565b3360009081526002602052604090205460ff166123ca5760405162461bcd60e51b8152600401610680906132b3565b6000828152600a60205260409020546001600160a01b03166123fe5760405162461bcd60e51b815260040161068090613721565b6001546000838152600a602052604090206008015410156124315760405162461bcd60e51b81526004016106809061361b565b6000828152600a602052604090206004015460ff166124815760405162461bcd60e51b815260206004820152600c60248201526b1b9bdd08195e1958dd5d195960a21b6044820152606401610680565b6000828152600a6020526040812060048101805460ff191690556002015460068054919290916124b290849061357a565b90915550506000828152600a602052604090206003016124d28282613408565b506040518060400160405280600681526020016518d85b98d95b60d21b815250600a600084815260200190815260200160002060060190816125149190613408565b506040518060400160405280600681526020016518d85b98d95b60d21b815250600a600084815260200190815260200160002060070190816125569190613408565b506000828152600a602090815260408083206005810184905580546001820154600283015493516125a9966001600160a01b03938416969390921694936003810193600682019260079092019101613751565b60408051601f1981840301815291815281516020928301206000948552600a9092529092206009019190915550565b600080815481106125eb576125eb61358d565b6000918252602090912001546001600160a01b0316331461261e5760405162461bcd60e51b8152600401610680906135da565b6001600160a01b03166000818152600260205260408120805460ff19166001908117909155815490810182559080527f290decd9548b62a8d60345a988386fc84ba6bc95484008f6362f93160ef3e5630180546001600160a01b0319169091179055565b3360009081526002602052604090205460ff166126b15760405162461bcd60e51b8152600401610680906132b3565b60008151116126f25760405162461bcd60e51b815260206004820152600d60248201526c11185d18481c995c5d5a5c9959609a1b6044820152606401610680565b600780546000818152600460205260408120805460ff19166001179055825491929061271d836132ef565b9190505550826000036127725760405162461bcd60e51b815260206004820152601c60248201527f746865206e756d626572206f6620636f756e742069732077726f6e67000000006044820152606401610680565b6000818152600c602052604090206002015460ff16156127a45760405162461bcd60e51b815260040161068090613525565b6000818152600c60209081526040808320600490810180546001600160a01b03191633908117909155825161012081018452888152938401879052838301859052606084018590526080840152600854825163db09bded60e01b81529251939460a08601946001600160a01b03929092169363db09bded9381810193918290030181865afa15801561283a573d6000803e3d6000fd5b505050506040513d6000823e601f3d908101601f191682016040526128629190810190613308565b815260408051808201825260038152621b9bdd60ea1b6020828101919091528084019190915260008284018190526060909301839052848352600c81529120825181559082015160018201906128b89082613408565b50604082015160028201805460ff19169115159190911790556060820151600382015560808201516004820180546001600160a01b0319166001600160a01b0390921691909117905560a082015160058201906129159082613408565b5060c0820151600682019061292a9082613408565b5060e08201516007820155610100909101516008909101556000818152600d6020908152604080832033808552925291829020805460ff1916600117905590517fbc5a0bd0573c2d6949cbb07c9f0a9b855e9697f8689ab0941d11fecb51646ae79061299b9086908690869061379b565b60405180910390a2505050565b6000826129b4816134e9565b6000818152600d602090815260408083206001600160a01b038816845290915290205490945060ff169150505b92915050565b806129f1816134e9565b60008181526003602052604090205490925060ff169050612a245760405162461bcd60e51b8152600401610680906135a3565b3360009081526002602052604090205460ff16612a535760405162461bcd60e51b8152600401610680906132b3565b6000818152600a60205260409020546001600160a01b0316612a875760405162461bcd60e51b815260040161068090613721565b6001546000828152600a60205260409020600501541015612aba5760405162461bcd60e51b81526004016106809061361b565b6000818152600a602052604090206004015460ff1615612aec5760405162461bcd60e51b815260040161068090613525565b6000818152600a6020526040812060048101805460ff19166001179055600201546006805491929091612b209084906135c7565b90915550506000818152600a602090815260409182902080546001820154600283015460058401549551612b78966001600160a01b039485169694909316949193600383019392600681019260079091019101613751565b60408051601f1981840301815282825280516020918201206000858152600a9092529190206009810191909155805460028201546001600160a01b0390911692849233927f8e0a5c7a32eb1eaf3d10995fd5d2f61f39ae3b260b42a7a3ca0918c40a39763792612beb92600301906137c4565b60405180910390a450565b600082612c02816134e9565b6000908152600b602090815260408083206001600160a01b03969096168352949052929092205460ff169392505050565b60008081548110612c4657612c4661358d565b6000918252602090912001546001600160a01b03163314612c795760405162461bcd60e51b8152600401610680906135da565b60006002600080600081548110612c9257612c9261358d565b6000918252602080832091909101546001600160a01b031683528201929092526040018120805460ff19169215159290921790915580548291908190612cda57612cda61358d565b9060005260206000200160006101000a8154816001600160a01b0302191690836001600160a01b0316021790555060016002600080600081548110612d2157612d2161358d565b6000918252602080832091909101546001600160a01b031683528201929092526040019020805460ff191691151591909117905550565b60008111612d785760405162461bcd60e51b815260040161068090613500565b80612d82816134e9565b60008181526004602052604090205490925060ff169050612db55760405162461bcd60e51b815260040161068090613500565b3360009081526002602052604090205460ff16612de45760405162461bcd60e51b8152600401610680906132b3565b6000818152600d6020908152604080832033845290915290205460ff1615612e1e5760405162461bcd60e51b81526004016106809061354f565b6000818152600c602052604090206002015460ff1615612e505760405162461bcd60e51b815260040161068090613525565b6000818152600d602090815260408083203384528252808320805460ff19166001908117909155848452600c9092528220600301805491929091612e9590849061357a565b90915550506000818152600c60205260408082205490519091839133917f08414945be0e53c6b0bd4f41c7f4923ff80a68ae9804a618c40b194f5b9f8e2291a450565b600060208284031215612eea57600080fd5b5035919050565b80356001600160a01b0381168114612f0857600080fd5b919050565b634e487b7160e01b600052604160045260246000fd5b604051601f8201601f1916810167ffffffffffffffff81118282101715612f4c57612f4c612f0d565b604052919050565b600067ffffffffffffffff821115612f6e57612f6e612f0d565b50601f01601f191660200190565b600082601f830112612f8d57600080fd5b8135612fa0612f9b82612f54565b612f23565b818152846020838601011115612fb557600080fd5b816020850160208301376000918101602001919091529392505050565b600080600060608486031215612fe757600080fd5b612ff084612ef1565b925060208401359150604084013567ffffffffffffffff81111561301357600080fd5b61301f86828701612f7c565b9150509250925092565b60006020828403121561303b57600080fd5b61304482612ef1565b9392505050565b60005b8381101561306657818101518382015260200161304e565b50506000910152565b6000815180845261308781602086016020860161304b565b601f01601f19169290920160200192915050565b6001600160a01b038b81168252602082018b9052610140604083018190526000916130c88483018d61306f565b91508a1515606085015289608085015280891660a08501525082810360c08401526130f3818861306f565b905082810360e0840152613107818761306f565b6101008401959095525050610120015298975050505050505050565b6000806040838503121561313657600080fd5b8235915061314660208401612ef1565b90509250929050565b6000806040838503121561316257600080fd5b82359150602083013567ffffffffffffffff81111561318057600080fd5b61318c85828601612f7c565b9150509250929050565b6001600160a01b038b811682528a16602082015260408101899052610140606082018190526000906131ca8382018b61306f565b905088151560808401528760a084015282810360c08401526130f3818861306f565b60006101208b83528060208401526132068184018c61306f565b8a15156040850152606084018a90526001600160a01b038916608085015283810360a08501529050613238818861306f565b905082810360c084015261324c818761306f565b60e084019590955250506101000152979650505050505050565b6020808252825182820181905260009190848201906040850190845b818110156132a75783516001600160a01b031683529284019291840191600101613282565b50909695505050505050565b6020808252600c908201526b2737ba1030b71037bbb732b960a11b604082015260600190565b634e487b7160e01b600052601160045260246000fd5b600060018201613301576133016132d9565b5060010190565b60006020828403121561331a57600080fd5b815167ffffffffffffffff81111561333157600080fd5b8201601f8101841361334257600080fd5b8051613350612f9b82612f54565b81815285602083850101111561336557600080fd5b61337682602083016020860161304b565b95945050505050565b600181811c9082168061339357607f821691505b6020821081036133b357634e487b7160e01b600052602260045260246000fd5b50919050565b601f82111561340357600081815260208120601f850160051c810160208610156133e05750805b601f850160051c820191505b818110156133ff578281556001016133ec565b5050505b505050565b815167ffffffffffffffff81111561342257613422612f0d565b61343681613430845461337f565b846133b9565b602080601f83116001811461346b57600084156134535750858301515b600019600386901b1c1916600185901b1785556133ff565b600085815260208120601f198616915b8281101561349a5788860151825594840194600190910190840161347b565b50858210156134b85787850151600019600388901b60f8161c191681555b5050505050600190811b01905550565b8281526040602082015260006134e1604083018461306f565b949350505050565b6000816134f8576134f86132d9565b506000190190565b6020808252600b908201526a0eee4dedcce40d2dcc8caf60ab1b604082015260600190565b60208082526010908201526f105b1c9958591e48195e1958dd5d195960821b604082015260600190565b602080825260119082015270105b1c9958591e4818dbdb999a5c9b5959607a1b604082015260600190565b808201808211156129e1576129e16132d9565b634e487b7160e01b600052603260045260246000fd5b6020808252600a90820152690eee4dedcce40d2c8caf60b31b604082015260600190565b818103818111156129e1576129e16132d9565b602080825260119082015270191bc81b9bdd081a185d99481c9a59da1d607a1b604082015260600190565b634e487b7160e01b600052603160045260246000fd5b60208082526018908201527f4e6f7420656e6f75676820636f6e6669726d6174696f6e730000000000000000604082015260600190565b6000815461365f8161337f565b60018281168015613677576001811461368c576136bb565b60ff19841687528215158302870194506136bb565b8560005260208060002060005b858110156136b25781548a820152908401908201613699565b50505082870194505b5050505092915050565b87815260006136d76020830189613652565b87151560f81b81528660018201526bffffffffffffffffffffffff198660601b16602182015261371361370d6035830187613652565b85613652565b9a9950505050505050505050565b602080825260169082015275125b9d985b1a59081d1c985b9cd858dd1a5bdb88125160521b604082015260600190565b60006bffffffffffffffffffffffff19808a60601b168352808960601b166014840152508660288301526137886048830187613652565b85815261371361370d6020830187613652565b8381526060602082015260006137b4606083018561306f565b9050826040830152949350505050565b82815260006020604081840152600084546137de8161337f565b8060408701526060600180841660008114613800576001811461381a57613848565b60ff1985168984015283151560051b890183019550613848565b896000528660002060005b858110156138405781548b8201860152908301908801613825565b8a0184019650505b5093999850505050505050505056fea26469706673582212204d9ae7db626a43b2a4330337e7b44b90a2fbc7f2e720a7e558f0ef8ceac1e5d864736f6c63430008130033608060405234801561001057600080fd5b50610620806100206000396000f3fe608060405234801561001057600080fd5b506004361061002b5760003560e01c8063db09bded14610030575b600080fd5b61003861004e565b604051610045919061040c565b60405180910390f35b60604260008080808080610061876100e9565b949a50929850909650945092509050600061007b8761022c565b61008e610089600489610455565b61022c565b61009c610089886013610468565b6100a58761022c565b6100ae8761022c565b6100b78761022c565b6040516020016100cc9695949392919061047b565b60408051601f198184030181529190529998505050505050505050565b60008080808080806100fd88617080610468565b9050600061010f6301e1853e8361054f565b61011b906107b2610468565b90506000600461012d6107b284610455565b610137919061054f565b905060006101478261016e610563565b610154620151808661054f565b61015e9190610455565b9050600061016d603c8661057a565b90506000603c61017f610e108861057a565b610189919061054f565b90506000610e1061019d620151808961057a565b6101a7919061054f565b9050600160005b600c82116101f45760006101c28984610338565b90508087116101d457869150506101f4565b6101de8188610455565b96505081806101ec9061058e565b9250506101ae565b87610200836001610468565b61020b836004610468565b8587899e509e509e509e509e509e5050505050505050505091939550919395565b6060816000036102535750506040805180820190915260018152600360fc1b602082015290565b8160005b811561027d57806102678161058e565b91506102769050600a8361054f565b9150610257565b60008167ffffffffffffffff811115610298576102986105a7565b6040519080825280601f01601f1916602001820160405280156102c2576020820181803683370190505b508593509050815b831561032f576102db600a8561057a565b6102e6906030610468565b60f81b826102f3836105bd565b92508281518110610306576103066105d4565b60200101906001600160f81b031916908160001a905350610328600a8561054f565b93506102ca565b50949350505050565b6000816002036103605761034b836103ad565b156103585750601d6103a7565b50601c6103a7565b6007821161038c5761037360028361057a565b1561037f57601f610382565b601e5b60ff1690506103a7565b61039760028361057a565b156103a357601e610382565b50601f5b92915050565b60006103ba60048361057a565b1580156103a757506103cd60648361057a565b1515806103a757506103e16101908361057a565b1592915050565b60005b838110156104035781810151838201526020016103eb565b50506000910152565b602081526000825180602084015261042b8160408501602087016103e8565b601f01601f19169190910160400192915050565b634e487b7160e01b600052601160045260246000fd5b818103818111156103a7576103a761043f565b808201808211156103a7576103a761043f565b60008751602061048e8285838d016103e8565b8184019150602d60f81b80835289516104ad8160018601858e016103e8565b600193019283015287516104c78160028501848c016103e8565b600160fd1b6002939091019283015286516104e88160038501848b016103e8565b808301925050601d60f91b806003840152865161050b8160048601858b016103e8565b6004930192830152845161052581600585018489016103e8565b919091016005019998505050505050505050565b634e487b7160e01b600052601260045260246000fd5b60008261055e5761055e610539565b500490565b80820281158282048414176103a7576103a761043f565b60008261058957610589610539565b500690565b6000600182016105a0576105a061043f565b5060010190565b634e487b7160e01b600052604160045260246000fd5b6000816105cc576105cc61043f565b506000190190565b634e487b7160e01b600052603260045260246000fdfea2646970667358221220715e7092a677753a6fe696242d1397709e71130235c0a7503a66aec4b5e0a3e264736f6c63430008130033",
    "sourcePath": "/Users/lonely/learn/web3/web3Project/blockchain/src/contract/MultiSigWallet.sol",
    "compiler": {
        "name": "solc",
        "version": "0.8.19+commit.7dd6d404"
    },
    "functionHashes": {
        "EarnMoney(uint256)": "9df8cde2",
        "budget()": "ed01bf29",
        "cancellationEarnmoney(uint256,string)": "3de3fbfd",
        "cancellationTransaction(uint256,string)": "cf4a051c",
        "chageContractowner(address)": "fde4b3c5",
        "changeViewRight(uint256)": "1a2db800",
        "changepowerfulman(uint256,address)": "35ff6b65",
        "changerequiredSignatures(uint256)": "6c29a744",
        "confirmTransaction(uint256)": "c01a8c84",
        "confirmations(uint256,address)": "3411c81c",
        "confirmationsearnmoney(uint256,address)": "84a5e9de",
        "confirmearnMoney(uint256)": "fe15fd4c",
        "earnMoney(uint256)": "80086eef",
        "earnmoneyCount()": "94f3ba0e",
        "executeTransaction(uint256)": "ee22610b",
        "getOwners()": "a0e67e2b",
        "getTransaction(uint256)": "33ea3dc8",
        "getearnmoney(uint256)": "c3b781c4",
        "isConfirmedtransation(uint256,address)": "f5b74e2b",
        "isConfirmedtransationEarn(uint256,address)": "e9262240",
        "isOwner(address)": "2f54bf6e",
        "level()": "6fd5ae15",
        "owners(uint256)": "025e7c27",
        "popowner(uint256)": "31d197fc",
        "pushownere(address)": "d90aa244",
        "requiredSignatures()": "8d068043",
        "revokeAlreadyEarnmoney(uint256)": "08d4e0af",
        "revokeAlreadyTransaction(uint256)": "57cda0c4",
        "revokeConfirmation(uint256)": "20ea8d86",
        "revokealreadyEarnmoney(uint256,address)": "90018dcc",
        "revokealreadyTransaction(uint256,address)": "74b223d5",
        "revokeearnMoney(uint256)": "55aaa460",
        "submitTransaction(address,uint256,string)": "03d79d28",
        "submitearnMoney(uint256,string)": "dddfc820",
        "time()": "16ada547",
        "transactionCount()": "b77bf600",
        "transactions(uint256)": "9ace38c2",
        "usedearnIndex(uint256)": "285bb07c",
        "usedtransationsIndex(uint256)": "8f10fc70"
    },
    "gasEstimates": {
        "creation": {
            "codeDepositCost": "2895400",
            "executionCost": "infinite",
            "totalCost": "infinite"
        },
        "external": {
            "EarnMoney(uint256)": "infinite",
            "budget()": "2339",
            "cancellationEarnmoney(uint256,string)": "infinite",
            "cancellationTransaction(uint256,string)": "infinite",
            "chageContractowner(address)": "88486",
            "changeViewRight(uint256)": "26768",
            "changepowerfulman(uint256,address)": "88610",
            "changerequiredSignatures(uint256)": "28871",
            "confirmTransaction(uint256)": "59551",
            "confirmations(uint256,address)": "2697",
            "confirmationsearnmoney(uint256,address)": "2675",
            "confirmearnMoney(uint256)": "62117",
            "earnMoney(uint256)": "infinite",
            "earnmoneyCount()": "2429",
            "executeTransaction(uint256)": "infinite",
            "getOwners()": "infinite",
            "getTransaction(uint256)": "infinite",
            "getearnmoney(uint256)": "infinite",
            "isConfirmedtransation(uint256,address)": "2835",
            "isConfirmedtransationEarn(uint256,address)": "2882",
            "isOwner(address)": "2643",
            "level()": "2384",
            "owners(uint256)": "4650",
            "popowner(uint256)": "infinite",
            "pushownere(address)": "77500",
            "requiredSignatures()": "2363",
            "revokeAlreadyEarnmoney(uint256)": "57974",
            "revokeAlreadyTransaction(uint256)": "57928",
            "revokeConfirmation(uint256)": "57264",
            "revokealreadyEarnmoney(uint256,address)": "2741",
            "revokealreadyTransaction(uint256,address)": "2740",
            "revokeearnMoney(uint256)": "62075",
            "submitTransaction(address,uint256,string)": "infinite",
            "submitearnMoney(uint256,string)": "infinite",
            "time()": "2439",
            "transactionCount()": "2406",
            "transactions(uint256)": "infinite",
            "usedearnIndex(uint256)": "2540",
            "usedtransationsIndex(uint256)": "2540"
        }
    }
}